{
  "contractName": "Wikipedia",
  "abi": [
    {
      "inputs": [],
      "payable": false,
      "stateMutability": "nonpayable",
      "type": "constructor"
    },
    {
      "anonymous": false,
      "inputs": [
        {
          "indexed": false,
          "internalType": "address",
          "name": "_from",
          "type": "address"
        },
        {
          "indexed": false,
          "internalType": "string",
          "name": "content",
          "type": "string"
        }
      ],
      "name": "ArticleAdded",
      "type": "event"
    },
    {
      "anonymous": false,
      "inputs": [
        {
          "indexed": false,
          "internalType": "address",
          "name": "_from",
          "type": "address"
        },
        {
          "indexed": false,
          "internalType": "uint256",
          "name": "index",
          "type": "uint256"
        },
        {
          "indexed": false,
          "internalType": "string",
          "name": "content",
          "type": "string"
        }
      ],
      "name": "ArticleUpdated",
      "type": "event"
    },
    {
      "constant": true,
      "inputs": [
        {
          "internalType": "uint256",
          "name": "",
          "type": "uint256"
        }
      ],
      "name": "articlesById",
      "outputs": [
        {
          "internalType": "string",
          "name": "content",
          "type": "string"
        }
      ],
      "payable": false,
      "stateMutability": "view",
      "type": "function"
    },
    {
      "constant": true,
      "inputs": [
        {
          "internalType": "uint256",
          "name": "",
          "type": "uint256"
        }
      ],
      "name": "ids",
      "outputs": [
        {
          "internalType": "uint256",
          "name": "",
          "type": "uint256"
        }
      ],
      "payable": false,
      "stateMutability": "view",
      "type": "function"
    },
    {
      "constant": true,
      "inputs": [
        {
          "internalType": "uint256",
          "name": "index",
          "type": "uint256"
        }
      ],
      "name": "articleContent",
      "outputs": [
        {
          "internalType": "string",
          "name": "",
          "type": "string"
        }
      ],
      "payable": false,
      "stateMutability": "view",
      "type": "function"
    },
    {
      "constant": true,
      "inputs": [],
      "name": "getAllIds",
      "outputs": [
        {
          "internalType": "uint256[]",
          "name": "",
          "type": "uint256[]"
        }
      ],
      "payable": false,
      "stateMutability": "view",
      "type": "function"
    },
    {
      "constant": false,
      "inputs": [
        {
          "internalType": "string",
          "name": "content",
          "type": "string"
        }
      ],
      "name": "addArticle",
      "outputs": [
        {
          "internalType": "bool",
          "name": "success",
          "type": "bool"
        }
      ],
      "payable": false,
      "stateMutability": "nonpayable",
      "type": "function"
    },
    {
      "constant": false,
      "inputs": [
        {
          "internalType": "uint256",
          "name": "index",
          "type": "uint256"
        },
        {
          "internalType": "string",
          "name": "content",
          "type": "string"
        }
      ],
      "name": "updateArticle",
      "outputs": [
        {
          "internalType": "bool",
          "name": "success",
          "type": "bool"
        }
      ],
      "payable": false,
      "stateMutability": "nonpayable",
      "type": "function"
    }
  ],
  "bytecode": "0x608060405234801561001057600080fd5b506000809050600081908060018154018082558091505090600182039060005260206000200160009091929091909150555061004a6100ae565b60405180602001604052806040518060600160405280602b8152602001610b47602b91398152509050806001600084815260200190815260200160002060008201518160000190805190602001906100a39291906100c1565b509050505050610166565b6040518060200160405280606081525090565b828054600181600116156101000203166002900490600052602060002090601f016020900481019282601f1061010257805160ff1916838001178555610130565b82800160010185558215610130579182015b8281111561012f578251825591602001919060010190610114565b5b50905061013d9190610141565b5090565b61016391905b8082111561015f576000816000905550600101610147565b5090565b90565b6109d2806101756000396000f3fe608060405234801561001057600080fd5b50600436106100625760003560e01c806302207107146100675780630ad062801461010e5780630c971a46146101b55780638120abed14610288578063aaa44e5c14610365578063fac333ac146103c4575b600080fd5b6100936004803603602081101561007d57600080fd5b8101908080359060200190929190505050610406565b6040518080602001828103825283818151815260200191508051906020019080838360005b838110156100d35780820151818401526020810190506100b8565b50505050905090810190601f1680156101005780820380516001836020036101000a031916815260200191505b509250505060405180910390f35b61013a6004803603602081101561012457600080fd5b81019080803590602001909291905050506104be565b6040518080602001828103825283818151815260200191508051906020019080838360005b8381101561017a57808201518184015260208101905061015f565b50505050905090810190601f1680156101a75780820380516001836020036101000a031916815260200191505b509250505060405180910390f35b61026e600480360360208110156101cb57600080fd5b81019080803590602001906401000000008111156101e857600080fd5b8201836020820111156101fa57600080fd5b8035906020019184600183028401116401000000008311171561021c57600080fd5b91908080601f016020809104026020016040519081016040528093929190818152602001838380828437600081840152601f19601f820116905080830192505050505050509192919290505050610574565b604051808215151515815260200191505060405180910390f35b61034b6004803603604081101561029e57600080fd5b8101908080359060200190929190803590602001906401000000008111156102c557600080fd5b8201836020820111156102d757600080fd5b803590602001918460018302840111640100000000831117156102f957600080fd5b91908080601f016020809104026020016040519081016040528093929190818152602001838380828437600081840152601f19601f8201169050808301925050505050505091929192905050506106d8565b604051808215151515815260200191505060405180910390f35b61036d6107ec565b6040518080602001828103825283818151815260200191508051906020019060200280838360005b838110156103b0578082015181840152602081019050610395565b505050509050019250505060405180910390f35b6103f0600480360360208110156103da57600080fd5b8101908080359060200190929190505050610844565b6040518082815260200191505060405180910390f35b6060600160008381526020019081526020016000206000018054600181600116156101000203166002900480601f0160208091040260200160405190810160405280929190818152602001828054600181600116156101000203166002900480156104b25780601f10610487576101008083540402835291602001916104b2565b820191906000526020600020905b81548152906001019060200180831161049557829003601f168201915b50505050509050919050565b6001602052806000526040600020600091509050806000018054600181600116156101000203166002900480601f01602080910402602001604051908101604052809291908181526020018280546001816001161561010002031660029004801561056a5780601f1061053f5761010080835404028352916020019161056a565b820191906000526020600020905b81548152906001019060200180831161054d57829003601f168201915b5050505050905081565b60008033905060008080549050905060008190806001815401808255809150509060018203906000526020600020016000909192909190915055507fae61de48b00477685973a6d74281d80572e612c1a47edb05b76b7205806a06438285604051808373ffffffffffffffffffffffffffffffffffffffff1673ffffffffffffffffffffffffffffffffffffffff16815260200180602001828103825283818151815260200191508051906020019080838360005b83811015610644578082015181840152602081019050610629565b50505050905090810190601f1680156106715780820380516001836020036101000a031916815260200191505b50935050505060405180910390a1610687610865565b6040518060200160405280868152509050806001600084815260200190815260200160002060008201518160000190805190602001906106c8929190610878565b5090505060019350505050919050565b6000803390507ff65cd413c0aa1d6bd90bc36fc2ed9d07fee1132f992173a4bb4a538c33325a0c818585604051808473ffffffffffffffffffffffffffffffffffffffff1673ffffffffffffffffffffffffffffffffffffffff16815260200183815260200180602001828103825283818151815260200191508051906020019080838360005b8381101561077a57808201518184015260208101905061075f565b50505050905090810190601f1680156107a75780820380516001836020036101000a031916815260200191505b5094505050505060405180910390a1826001600086815260200190815260200160002060000190805190602001906107e09291906108f8565b50600191505092915050565b6060600080548060200260200160405190810160405280929190818152602001828054801561083a57602002820191906000526020600020905b815481526020019060010190808311610826575b5050505050905090565b6000818154811061085157fe5b906000526020600020016000915090505481565b6040518060200160405280606081525090565b828054600181600116156101000203166002900490600052602060002090601f016020900481019282601f106108b957805160ff19168380011785556108e7565b828001600101855582156108e7579182015b828111156108e65782518255916020019190600101906108cb565b5b5090506108f49190610978565b5090565b828054600181600116156101000203166002900490600052602060002090601f016020900481019282601f1061093957805160ff1916838001178555610967565b82800160010185558215610967579182015b8281111561096657825182559160200191906001019061094b565b5b5090506109749190610978565b5090565b61099a91905b8082111561099657600081600090555060010161097e565b5090565b9056fea265627a7a72315820508f6dacb88606584a53133bb6c56bf73dfe18678c179006c80c0b5fdabacb7364736f6c634300051000325468697320697320796f75722066697273742061727469636c6520696e20796f757220636f6e7472616374",
  "source": "pragma solidity ^0.5.0;\n\ncontract Wikipedia {\n\n  struct Article {\n    string content;\n  }\n  \n  uint[] public ids;\n  mapping (uint => Article) public articlesById;\n\n  constructor() public {\n    uint index = 0;\n    ids.push(index);\n\n    Article memory newArticle = Article(\"This is your first article in your contract\");\n    articlesById[index] = newArticle;\n  }\n\n  function articleContent(uint index) public view returns (string memory) {\n    return articlesById[index].content;\n  }\n\n  function getAllIds() public view returns (uint[] memory) {\n    return ids;\n  }\n\n  // Write your code here.\n  \n  event ArticleAdded(\n    address _from,\n    string content\n  );\n  \n  event ArticleUpdated(\n    address _from,\n    uint index,\n    string content\n  );\n  \n  function addArticle(string memory content) public returns (bool success) {\n    address _from = msg.sender;\n    uint index = ids.length;\n    ids.push(index);\n    emit ArticleAdded(_from, content);\n  \t\n  \tArticle memory newArticle = Article(content);\n  \tarticlesById[index] = newArticle;\n  \t\n  \treturn true;\n  }\n  \n  function updateArticle(uint index, string memory content) public returns (bool success) {\n    address _from = msg.sender;\n    emit ArticleUpdated(_from, index, content);\n  \tarticlesById[index].content = content;\n  \t\n  \treturn true;\n  }\n}\n",
  "sourcePath": "/home/sim/Repos/decentralized_wikipedia/contracts/Wikipedia.sol",
  "compiler": {
    "name": "solc",
    "version": "0.5.16+commit.9c3226ce.Emscripten.clang"
  },
  "schemaVersion": "3.3.2",
  "updatedAt": "2020-12-06T10:07:27.772Z",
  "networkType": "ethereum",
  "devdoc": {
    "methods": {}
  },
  "userdoc": {
    "methods": {}
  }
}